:020000040800F2
:100000000000022099520008DD1C0008DF1C0008D7
:10001000E11C0008E31C0008E51C000800000000CB
:10002000000000000000000000000000E71C0008C5
:10003000E91C000800000000EB1C0008ED1C000893
:10004000E9520008E9520008E9520008E9520008A4
:10005000E9520008E9520008E9520008E952000894
:10006000E9520008E9520008E9520008E952000884
:10007000E9520008E9520008E9520008E952000874
:10008000E9520008E9520008F51C00080D1D00089F
:100090001D1D00082D1D00083D1D0008E952000827
:1000A000E9520008E9520008E9520008E952000844
:1000B0004D1D0008E9520008E9520008E952000805
:1000C000E9520008E9520008E9520008E952000824
:1000D000E95200085D1D0008E9520008E9520008D5
:1000E000E9520008E9520008E9520008E952000804
:1000F000E9520008E9520008E9520008E9520008F4
:10010000E9520008E9520008E9520008E9520008E3
:10011000E9520008E95200086D1D0008E952000884
:100120007D1D0008E9520008E9520008E952000864
:10013000E95200080000000000000000E952000839
:10014000E9520008E9520008E9520008E9520008A3
:10015000E9520008E9520008E9520008E952000893
:10016000E9520008E9520008E9520008E952000883
:10017000E9520008E9520008E952000800000000B6
:1001800000000000E952000800000000000000002C
:10019000E95200080000000000000000E9520008D9
:1001A000000000000000000000000000E95200080C
:1001B000E9520008E9520008E9520008E952000833
:0401C000E9520008F8
:1001D00001F0FF01102A2BDB10F0070F08D010F8F8
:1001E000013B013A8B422DD010F0070F42B3F6D1FC
:1001F000F0B441EA012141EA014122F007047FF015
:1002000000070023F0E80256083C85EA010586EA6B
:10021000010685FA47F5A3FA87F586FA47F6A5FAA7
:1002200087F68EB9EED1F0BC01F0FF0102F00702B3
:1002300032B110F8013B013A83EA010313B1F8D15E
:100240000020704701387047002D06BF354603383F
:10025000073815F0010F07D1013015F4807F02BF78
:10026000013015F4C03F0130F0BC0138704700BFC9
:10027000034613F8012B002AFBD1181A01387047E6
:1002800081F0004102E000BF83F0004330B54FEA47
:1002900041044FEA430594EA050F08BF90EA020FB4
:1002A0001FBF54EA000C55EA020C7FEA645C7FEA47
:1002B000655C00F0E2804FEA5454D4EB5555B8BF6A
:1002C0006D420CDD2C4480EA020281EA030382EADB
:1002D000000083EA010180EA020281EA0303362D6D
:1002E00088BF30BD11F0004F4FEA01314FF4801C40
:1002F0004CEA113102D0404261EB410113F0004F52
:100300004FEA03334CEA133302D0524263EB430308
:1003100094EA050F00F0A780A4F10104D5F1200EA6
:100320000DDB02FA0EFC22FA05F2801841F1000101
:1003300003FA0EF2801843FA05F359410EE0A5F1D5
:1003400020050EF1200E012A03FA0EFC28BF4CF006
:10035000020C43FA05F3C01851EBE37101F00045BC
:1003600007D54FF0000EDCF1000C7EEB00006EEBC9
:100370000101B1F5801F1BD3B1F5001F0CD3490853
:100380005FEA30004FEA3C0C04F101044FEA4452AA
:1003900012F5800F80F09A80BCF1004F08BF5FEA31
:1003A000500C50F1000041EB045141EA050130BD11
:1003B0005FEA4C0C404141EB0101013C28BFB1F523
:1003C000801FE9D291F0000F04BF01460020B1FA6E
:1003D00081F308BF2033A3F10B03B3F120020CDA41
:1003E0000C3208DD02F1140CC2F10C0201FA0CF01F
:1003F00021FA02F10CE002F11402D8BFC2F1200C84
:1004000001FA02F120FA0CFCDCBF41EA0C01904039
:10041000E41AA2BF01EB0451294330BD6FEA040482
:100420001F3C1CDA0C340EDC04F11404C4F120026D
:1004300020FA04F001FA02F340EA030021FA04F37F
:1004400045EA030130BDC4F10C04C4F1200220FAD6
:1004500002F001FA04F340EA0300294630BD21FA14
:1004600004F0294630BD94F0000F83F4801306BFDA
:1004700081F480110134013D4EE77FEA645C18BFCE
:100480007FEA655C29D094EA050F08BF90EA020F65
:1004900005D054EA000C04BF1946104630BD91EA5D
:1004A000030F1EBF0021002030BD5FEA545C05D160
:1004B0004000494128BF41F0004130BD14F580049F
:1004C0003CBF01F5801130BD01F0004545F0FE4113
:1004D00041F470014FF0000030BD7FEA645C1ABF48
:1004E000194610467FEA655C1CBF0B46024650EA7F
:1004F000013406BF52EA033591EA030F41F40021AB
:1005000030BD00BF90F0000F04BF0021704730B530
:100510004FF4806404F132044FF000054FF0000105
:1005200050E700BF90F0000F04BF0021704730B5C6
:100530004FF4806404F1320410F0004548BF40429B
:100540004FF000013EE700BF42004FEAE2014FEAF0
:1005500031014FEA02701FBF12F07F4393F07F4FCB
:1005600081F06051704732F07F4208BF704793F0CE
:100570007F4F04BF41F40021704730B54FF46074E1
:1005800001F0004521F000411CE700BF50EA0102E4
:1005900008BF704730B54FF000050AE050EA01028D
:1005A00008BF704730B511F0004502D5404261EBFD
:1005B00041014FF4806404F132045FEA915C3FF43E
:1005C000D8AE4FF003025FEADC0C18BF03325FEADB
:1005D000DC0C18BF033202EBDC02C2F1200300FA8C
:1005E00003FC20FA02F001FA03FE40EA0E0021FAB1
:1005F00002F11444BDE600BF70B54FF0FF0C4CF49F
:10060000E06C1CEA11541DBF1CEA135594EA0C0F50
:1006100095EA0C0F00F0DEF82C4481EA030621EA8B
:100620004C5123EA4C5350EA013518BF52EA0335C6
:1006300041F4801143F4801338D0A0FB02CE4FF078
:100640000005E1FB02E506F00042E0FB03E54FF0A8
:100650000006E1FB03569CF0000F18BF4EF0010EA0
:10066000A4F1FF04B6F5007F64F5407404D25FEA9C
:100670004E0E6D4146EB060642EAC62141EA55514F
:100680004FEAC52040EA5E504FEACE2EB4F1FD0C91
:1006900088BFBCF5E06F1ED8BEF1004F08BF5FEA0F
:1006A000500E50F1000041EB045170BD06F00046C1
:1006B00046EA010140EA020081EA0301B4EB5C046E
:1006C000C2BFD4EB0C0541EA045170BD41F4801166
:1006D0004FF0000E013C00F3AB8014F1360FDEBF8B
:1006E000002001F0004170BDC4F10004203C35DA67
:1006F0000C341BDC04F11404C4F1200500FA05F3EA
:1007000020FA04F001FA05F240EA020001F000428A
:1007100021F0004110EBD37021FA04F642EB060100
:100720005EEA430E08BF20EAD37070BDC4F10C042A
:10073000C4F1200500FA04F320FA05F001FA04F2EE
:1007400040EA020001F0004110EBD37041F10001DA
:100750005EEA430E08BF20EAD37070BDC4F12005E5
:1007600000FA05F24EEA020E20FA04F301FA05F24D
:1007700043EA020321FA04F001F0004121FA04F2F5
:1007800020EA020000EBD3705EEA430E08BF20EAC5
:10079000D37070BD94F0000F0FD101F000464000FF
:1007A00041EB010111F4801F08BF013CF7D041EA81
:1007B000060195F0000F18BF704703F00046520085
:1007C00043EB030313F4801F08BF013DF7D043EA56
:1007D0000603704794EA0C0F0CEA135518BF95EA0C
:1007E0000C0F0CD050EA410618BF52EA4306D1D193
:1007F00081EA030101F000414FF0000070BD50EAB2
:10080000410606BF1046194652EA430619D094EA3B
:100810000C0F02D150EA013613D195EA0C0F05D125
:1008200052EA03361CBF104619460AD181EA030179
:1008300001F0004141F0FE4141F470014FF0000031
:1008400070BD41F0FE4141F4780170BD70B54FF0CC
:10085000FF0C4CF4E06C1CEA11541DBF1CEA13554C
:1008600094EA0C0F95EA0C0F00F0A7F8A4EB05042E
:1008700081EA030E52EA03354FEA013100F0888025
:100880004FEA03334FF0805545EA131343EA1263EE
:100890004FEA022245EA111545EA10654FEA0026A3
:1008A0000EF000419D4208BF964244F1FD0404F55C
:1008B000407402D25B084FEA3202B61A65EB0305B8
:1008C0005B084FEA32024FF480104FF4002CB6EB75
:1008D000020E75EB030E22BFB61A754640EA0C00F5
:1008E0005B084FEA3202B6EB020E75EB030E22BF35
:1008F000B61A754640EA5C005B084FEA3202B6EB76
:10090000020E75EB030E22BFB61A754640EA9C0034
:100910005B084FEA3202B6EB020E75EB030E22BF04
:10092000B61A754640EADC0055EA060E18D04FEAC2
:10093000051545EA16754FEA06164FEAC30343EA62
:1009400052734FEAC2025FEA1C1CC0D111F4801F2F
:100950000BD141EA00014FF000004FF0004CB6E728
:1009600011F4801F04BF01430020B4F1FD0C88BFC7
:10097000BCF5E06F3FF6AFAEB5EB030C04BFB6EBD2
:10098000020C5FEA500C50F1000041EB045170BDC5
:100990000EF0004E4EEA113114EB5C04C2BFD4EBF2
:1009A0000C0541EA045170BD41F480114FF0000E76
:1009B000013C90E645EA060E8DE60CEA135594EAF2
:1009C0000C0F08BF95EA0C0F3FF43BAF94EA0C0FF5
:1009D0000AD150EA01347FF434AF95EA0C0F7FF46A
:1009E00025AF104619462CE795EA0C0F06D152EABE
:1009F00003353FF4FDAE1046194622E750EA4106A2
:100A000018BF52EA43067FF4C5AE50EA41047FF4B2
:100A10000DAF52EA43057FF4EBAE12E74FF0FF3C17
:100A200006E000BF4FF0010C02E000BF4FF0010CE8
:100A30004DF804CD4FEA410C7FEA6C5C4FEA430C61
:100A400018BF7FEA6C5C1BD001B050EA410C0CBFB0
:100A500052EA430C91EA030F02BF90EA020F002012
:100A6000704710F1000F91EA030F58BF994208BF79
:100A700090422CBFD8176FEAE37040F00100704736
:100A80004FEA410C7FEA6C5C02D150EA013C07D18D
:100A90004FEA430C7FEA6C5CD6D152EA033CD3D0D8
:100AA0005DF8040B704700BF8446104662468C46D2
:100AB0001946634600E000BF01B5FFF7B7FF002805
:100AC00048BF10F1000F01BD4DF808EDFFF7F4FF2E
:100AD0000CBF012000205DF808FB00BF4DF808EDB9
:100AE000FFF7EAFF34BF012000205DF808FB00BFDC
:100AF0004DF808EDFFF7E0FF94BF012000205DF8FE
:100B000008FB00BF4DF808EDFFF7CEFF94BF0120B2
:100B100000205DF808FB00BF4DF808EDFFF7C4FFAB
:100B200034BF012000205DF808FB00BF4FEA410CF4
:100B30007FEA6C5C02D150EA013C0AD14FEA430CD7
:100B40007FEA6C5C02D152EA033C02D14FF0000014
:100B500070474FF0010070474FEA410212F5001252
:100B600015D211D56FF47873B3EB625212D94FEAF4
:100B7000C12343F0004343EA505311F0004F23FADE
:100B800002F018BF404270474FF00000704750EA33
:100B9000013005D111F0004008BF6FF000407047F0
:100BA0004FF00000704700BF4A0011D212F500124A
:100BB00011D20DD56FF47873B3EB62520ED44FEAB5
:100BC000C12343F0004343EA505323FA02F0704735
:100BD0004FF00000704750EA013002D14FF0FF3073
:100BE00070474FF00000704753B94AB9002908BF59
:100BF00000281CBF4FF0FF314FF0FF3000F00CB861
:100C0000ADF1080C6DE904CE07F0C8FADDF804E098
:100C1000DDE9022304B07047704700BF10B5054CF2
:100C2000237833B9044B13B10448AFF30080012398
:100C3000237010BDD8010020000000003C84000893
:100C400008B5034B1BB103490348AFF3008008BD4F
:100C500000000000DC0100203C84000800B585B0E5
:100C6000002300930193029303936548654A026051
:100C70004FF480324260836001220261037680F883
:100C800020304FF04051C1624FF0C0618162C360BB
:100C90000D23C36180F83020426101F04BFB002836
:100CA00040F08480002300930123019307230293E3
:100CB0006946534801F026FD00287AD101230093AC
:100CC0000223019369464E4801F01CFD002873D1B0
:100CD00002230093032301936946494801F012FD62
:100CE00000286CD1032300930423019369464448F0
:100CF00001F008FD002865D104230093052301932A
:100D000069463F4801F0FEFC00285ED105230093B0
:100D10000623019369463A4801F0F4FC002857D1B4
:100D200006230093072301936946354801F0EAFC46
:100D3000002850D1072300930823019369463048C7
:100D400001F0E0FC002849D1082300930923019316
:100D500069462B4801F0D6FC002842D109230093B4
:100D60000A2301936946264801F0CCFC00283BD1B8
:100D70000A2300930B2301936946214801F0C2FC2A
:100D8000A8BB0E2300930C23019369461C4801F075
:100D9000B9FC78BB0F2300930D23019369461848D3
:100DA00001F0B0FC48BB05B05DF804FB00F012FD9B
:100DB00078E700F00FFD81E700F00CFD88E700F018
:100DC00009FD8FE700F006FD96E700F003FD9DE7C3
:100DD00000F000FDA4E700F0FDFCABE700F0FAFC3A
:100DE000B2E700F0F7FCB9E700F0F4FCC0E700F070
:100DF000F1FCC6E700F0EEFCCCE700F0EBFCD2E73C
:100E00009C0200200020014000B585B00023009323
:100E10000193029303931548154A02604FF4803200
:100E2000426083600361037680F82030C362114A18
:100E30008262C3600122C26180F83030426101F0F9
:100E400079FA68B90C2300930123019300230293DC
:100E50006946064801F056FC28B905B05DF804FB68
:100E600000F0B8FCEEE700F0B5FCF6E75402002015
:100E7000002201400100000F70B58CB000230793E1
:100E8000089309930A930B9303684B4A934204D047
:100E90004A4A934269D00CB070BD044600250195C2
:100EA000474B5A6C42F480725A645A6C02F4807256
:100EB0000192019A02951A6B42F004021A631A6BAE
:100EC00002F004020292029A03951A6B42F00102A8
:100ED0001A631A6B02F001020392039A04951A6BCB
:100EE00042F002021A631B6B03F002030493049B9B
:100EF000312307930326089607A9324802F0C8FA5F
:100F0000FF2307930896099507A92F4802F0C0FA16
:100F100007960896099507A92C4802F0B9FA2C48BB
:100F20002C4B036045608560C5604FF480630361AE
:100F30004FF4006343614FF4005383614FF48073B7
:100F4000C3610562456202F0BDF858B9204BA36346
:100F50009C6300221146122002F006F8122002F0D3
:100F600013F898E700F036FCF0E700240594144BE2
:100F70005A6C42F480625A645A6C02F480620592A0
:100F8000059A06941A6B42F004021A631B6B03F075
:100F900004030693069B0C2307930323089307A9D6
:100FA000084802F075FA22462146122001F0DCFFC3
:100FB000122001F0E9FF6EE700200140002201400D
:100FC00000380240000802400000024000040240D5
:100FD000F40100201064024008B500F01FF808BDBD
:100FE00008B50B4900230B604B608B60CB600B6135
:100FF0004B610B83074A136053609360D3601361A6
:10100000536113830D22044801F0C0F908BD00BFED
:10101000E4020020000300209C02002002681D4B17
:101020001B689A4200D0704730B41B4B1B7853B1F9
:10103000194B00221A70194C194D0FCD0FC495E8A9
:10104000070003C4228000231FE0154A32F8132052
:1010500007EE902AF8EEE77A9FED127A67EE877A2C
:101060000E4A32F8131007EE101AB8EEC77ADFED09
:101070000E6A27EE267A77EE877AFCEEE77A17EE8D
:10108000901A22F813100133DBB20C2BDDD930BCDF
:10109000704700BF9C0200200000002000030020D9
:1010A000E4020020CDCCCC3D6666663F074B33F8AA
:1010B000103007EE903AF8EE677A9FED057A67EE0A
:1010C000877A9FED040A87EE800A704700030020AC
:1010D00000404E4500F07F4508B50E480E4B0360BA
:1010E0000323436000238360C3604FF43022026116
:1010F0004FF4801242610376012242768376C376F2
:101100000377437701F0D5FB00B908BD00F062FB1F
:10111000FBE700BF1C0300200064004010B588B04E
:101120000023039304930593069307930268254BCA
:101130009A4201D008B010BD0024019403F5EA33AF
:101140001A6C42F000721A641A6C02F0007201927A
:10115000019A02941A6B42F001021A631B6B03F0AE
:1011600001030293029B4FF4C053039302230493A1
:10117000032306930923079303A9134802F088F970
:1011800022462146132001F0EFFE132001F0FCFE61
:1011900022462146142001F0E7FE142001F0F4FE5F
:1011A00022462146152001F0DFFE152001F0ECFE5D
:1011B00022462146162001F0D7FE162001F0E4FE5B
:1011C000B8E700BF006400400000024008B50520F9
:1011D00000F0FCF8002008BD08B5102000F0F6F87B
:1011E000002008BD08B54FF4907000F0EFF8002023
:1011F00008BD08B54FF4806000F0E8F8002008BD95
:1012000008B5312000F0E2F8002008BD08B5112033
:1012100000F0DCF8002008BD08B540F2024000F004
:10122000D5F8002008BD08B540F2211000F0CEF836
:10123000002008BD08B540F2014000F0C7F80020CA
:1012400008BD08B5302000F0C1F8002008BD00003E
:1012500010B582B0294C44F620622949204603F09B
:10126000F7FE0DF1070244F62061204603F044FF2B
:101270001021244802F0FCF9012820D01F4C224AFA
:101280009DF80710204603F06DFF204A9DF80710D7
:10129000204603F067FF1E4A9DF80710204603F022
:1012A00061FF1C4A9DF80710204603F05BFF1A4AB5
:1012B0009DF80710204603F055FF02B010BD174AF5
:1012C0009DF80710204603F04DFF154A9DF80710C2
:1012D000204603F047FF134A9DF80710204603F00D
:1012E00041FF114A9DF80710204603F03BFF0F4ACB
:1012F0009DF80710204603F035FFDEE74403002089
:10130000781D002000040240CD110008D91100080A
:10131000E5110008F3110008011200080D12000881
:10132000191200082712000835120008431200089D
:1013300008B5024803F039FF08BD00BF4403002090
:1013400008B50146014803F066FF08BD44030020CC
:10135000BFF34F8F0549CA6802F4E062044B1343A0
:10136000CB60BFF34F8F00BFFDE700BF00ED00E093
:101370000400FA0570B504460E4600F03BFF054632
:10138000204601F0BAFB30B900F034FF431BB342F2
:10139000F6D9032000E0002070BD70B582B004468D
:1013A0000E4615460121FFF7E5FF60B901AB324655
:1013B0002946204601F023FB8DF803009DF8030029
:1013C000C0B202B070BD0320FBE7000000B587B0DB
:1013D000002304930593774B1860B0F5907F76D087
:1013E00030D8102852D0112800F09980052826D135
:1013F0000720FFF75BFE00F0BFFAADF80A000420FB
:10140000FFF754FE00F0B2FAADF808000520FFF730
:101410004DFE00F09FFAADF804000820FFF746FEED
:1014200000F09EFAADF80600082201A904A800F019
:1014300073FA604A106104A95F48FFF7AEFF07B076
:101440005DF804FB40F22113984200F0898040F2DD
:1014500002439842F3D10A20FFF728FE00F049FB2F
:10146000ADF804000620FFF721FE00F048FBADF8C0
:10147000060004220DEB020104A800F027FB4D4AF0
:10148000106104A94C48FFF788FFD8E70620FFF752
:101490000DFE00F09CFAADF808000B20FFF706FEE9
:1014A00000F089FAADF804000C20FFF7FFFD00F012
:1014B00088FAADF80600062201A904A800F062FA35
:1014C0003C4A106104A93C48FFF767FFB7E70120D9
:1014D000FFF7ECFD00F0ABFAADF808000220FFF7D3
:1014E000E5FD00F098FAADF804000320FFF7DEFDFB
:1014F00000F0A3FAADF80A000020FFF7D7FD00F0D6
:1015000090FAADF80600082201A904A800F065FAD7
:10151000284A106104A92848FFF73FFF8FE70920F8
:10152000FFF7C4FD00F0B4FAADF808000C20FFF797
:10153000BDFD00F0A1FAADF804000B20FFF7B6FDE9
:1015400000F0A0FAADF80600062201A904A800F0F8
:101550007AFA184A106104A91748FFF71EFF6EE7D0
:101560000020FFF7A3FD00F0A5FAADF80800032066
:10157000FFF79CFD00F092FAADF804000220FFF79F
:1015800095FD00F09DFAADF80A000120FFF78EFDF1
:1015900000F08AFAADF8060004220DEB020104A85F
:1015A00000F094FA034A106104A90348FFF7F5FE1E
:1015B00045E700BF580C00201C03002008B5034A73
:1015C0000321034803F0BCFC08BD00BF5884000899
:1015D000700C002000B58BB000210191029101AB8D
:1015E00003AA01F0A3FA10B9039B072B02D00BB09A
:1015F0005DF804FBFFF7ACFE00B583B0002101915C
:10160000094B1A6B42F480021A631B6B03F48003CC
:101610000193019B0A46382001F0A6FC382001F016
:10162000B3FC03B05DF804FB003802402DE9F04143
:101630008AB00024059406940794089409940094B1
:101640004B4B1A6B42F004021A631A6B02F004024D
:101650000092009A01941A6B42F080021A631A6B8E
:1016600002F080020192019A02941A6B42F0010288
:101670001A631A6B02F001020292029A03941A6B27
:1016800042F002021A631A6B02F002020392039AFA
:1016900004941A6B42F008021A631B6B03F00803F0
:1016A0000493049B334F224648F2C031384601F080
:1016B000E6FF314D22464FF44251284601F0DFFF4C
:1016C000DFF8B88022464FF48071404601F0D7FF22
:1016D0004FF4C04305930694079405A9384601F0DA
:1016E000D7FE48F2C0330593012606960794089466
:1016F00005A9384601F0CCFE302305930323069359
:10170000079405A9384601F0C3FE4FF442530593F0
:1017100006960794089405A9284601F0B9FE4FF4EF
:101720008073059306960794089405A9404601F036
:10173000AFFE102305930694079605A9284601F0ED
:10174000A7FE202305934FF488130693079405A959
:10175000284601F09DFE4FF45073059306940794BC
:1017600005A9284601F094FE0AB0BDE8F08100BF4B
:10177000003802400008024000040240000002401D
:1017800008B5074B93F83D30DBB2202B01D0022087
:1017900008BD8AB20146024803F0D1F90020F7E7FC
:1017A000081E002008B5044B4FF48052034904483A
:1017B00003F0B4FB08BD00BF81170008800C0020B7
:1017C000700C002008B5024803F02CFC08BD00BFD7
:1017D000700C002072B6FEE700B595B034220021EF
:1017E00007A804F065FB0023029303930493059379
:1017F00006930093234A116C41F080511164126CDE
:1018000002F080520092009A01931F4B1A6842F432
:1018100040421A601B6803F440430193019B01237B
:1018200007934FF48033089302230D934FF4800203
:101830000E9204220F92B4221092119312931393DA
:1018400007A802F01DF9B0B901F020FFA8B90F23D5
:10185000029302230393002304934FF4A0530593B0
:101860004FF480530693052102A801F04DFF30B9D3
:1018700015B05DF804FBFFF7ADFFFFF7ABFFFFF717
:10188000A9FF00BF003802400070004010B582B0D0
:1018900000F08AFCFFF7A0FFFFF7C8FEFFF7ACFEE1
:1018A000FFF7DCF9FFF718FC00F030F900F04EF913
:1018B00000F09EFB00F0B6FBFFF7A6FA00F04AFB33
:1018C00000F06EFA00F0A4FA104802F023FCFFF7D3
:1018D00087FBFFF767FFFFF7BBFC13E0E0B2FFF702
:1018E000E5FB10EE100AFEF72FFECDE900012346BE
:1018F000074A0021074803F023FB01340A2CEDDDE1
:10190000FFF760FFFFF714FD0024F7E7C01D00207C
:1019100060840008700C0020072A18D90023036097
:1019200043600B7803700B881B0A43708B788370BD
:101930004B881B0AC3700B7903718B881B0A437198
:101940008B798371CB881B0AC371082070476FF0B5
:1019500015007047BCEEC00A10EE103A98B27047FE
:10196000BCEEC00A10EE103A98B27047BCEEC00A46
:1019700010EE103A98B27047BCEEC00A10EE103A62
:1019800098B27047052A13D90023036083800B782F
:1019900003700B881B0A43708B7883704B881B0A7B
:1019A000C3700B7903718B881B0A43710620704743
:1019B0006FF015007047BCEEC00A10EE103A98B2F6
:1019C0007047BCEEC00A10EE103A98B27047BCEEF9
:1019D000C00A10EE103A98B27047072A18D90023AF
:1019E000036043600B7803700B881B0A43708B788D
:1019F00083704B881B0AC3700B7903718B881B0A99
:101A000043718B798371CB881B0AC371082070479F
:101A10006FF015007047BCEEC00A10EE103A98B295
:101A20007047BCEEC00A10EE103A98B27047BCEE98
:101A3000C00A10EE103A98B27047BCEEC00A10EE21
:101A4000103A98B27047052A13D9002303608380A7
:101A50000B7803700B881B0A43708B7883704B885C
:101A60001B0AC3700B7903718B881B0A4371062014
:101A700070476FF015007047BCEEC00A10EE103AC8
:101A800098B27047BCEEC00A10EE103A98B2704798
:101A9000BCEEC00A10EE103A98B27047BCEEC00A15
:101AA00010EE103A98B27047BCEEC00A10EE103A31
:101AB00098B27047BCEEC00A10EE103A98B2704768
:101AC000BCEEC00A10EE103A98B27047032A0DD946
:101AD000002303600B7803700B881B0A43708B781C
:101AE00083704B881B0AC370042070476FF0150089
:101AF0007047BCEEC00A10EE103A98B27047BCEEC8
:101B0000C00A10EE103A98B27047000008B50D48B0
:101B10000D4B03604FF48273436000238360C36006
:101B2000036143614FF400728261C36103624362E7
:101B300083620A23C36202F0C5F900B908BDFFF74A
:101B400049FEFBE7D81C00200038004008B50D48CE
:101B50000D4B03604FF48273436000238360C360C6
:101B6000036143614FF400728261C36103624362A7
:101B700083620A23C36202F0A5F900B908BDFFF72A
:101B800029FEFBE7801C0020003C004070B58CB0B3
:101B900000230793089309930A930B9303683C4A25
:101BA000934204D03B4A934239D00CB070BD00241C
:101BB0000194394B1A6C42F480421A641A6C02F494
:101BC00080420192019A02941A6B42F004021A6355
:101BD0001A6B02F004020292029A03941A6B42F00A
:101BE00002021A631B6B03F002030393039B02259B
:101BF0000795089503260A9607230B9307A92748FC
:101C000001F046FC4FF488430793089509940A961F
:101C100005230B9307A9224801F03AFCC5E70024ED
:101C200004941D4B1A6C42F400421A641A6C02F4BC
:101C300000420492049A05941A6B42F002021A635D
:101C40001A6B02F002020592059A06941A6B42F092
:101C500004021A631B6B03F004030693069B042320
:101C600007930226089603250A9507230B9307A9D5
:101C70000B4801F00DFC4FF440630793089609945C
:101C80000A9506230B9307A9044801F001FC8CE791
:101C900000380040003C004000380240000802408C
:101CA0000004024082B0002100910B4B5A6C42F4B8
:101CB00080425A645A6C02F480420092009A019168
:101CC0001A6C42F080521A641B6C03F0805301932B
:101CD000019B02B0704700BF00380240FEE7FEE7FC
:101CE000FEE7FEE7FEE770477047704708B500F073
:101CF00075FA08BD08B5034800F01EFC024800F064
:101D00001BFC08BD9C0200205402002008B50248BC
:101D100000F0BCFF08BD00BF1C03002008B502484E
:101D200000F0B4FF08BD00BF1C03002008B5024846
:101D300000F0ACFF08BD00BF1C03002008B502483E
:101D400000F0A4FF08BD00BF1C03002008B5024836
:101D500002F067FA08BD00BFC01D002008B50248A8
:101D600002F09EFF08BD00BF081E002008B5024813
:101D700002F057FA08BD00BF781D002008B50248E0
:101D800001F098FA08BD00BFF4010020034AD2F820
:101D9000883043F47003C2F88830704700ED00E0EB
:101DA00000B587B000230293039304930593009337
:101DB000019316484FF08042026040F28332426045
:101DC00083600922C2600361836102F04BFB98B912
:101DD0004FF48053029302A90C4802F04EFC70B9F4
:101DE00020230093002301936946084802F04AFD2E
:101DF00040B907B05DF804FBFFF7ECFCE8E7FFF73C
:101E0000E9FCEDE7FFF7E6FCF3E700BFC01D0020AB
:101E100000B583B00023009301930F480F4A02607E
:101E200040F28332426083604FF6FF72C26083618A
:101E300002F018FB50B9002300930193694606484D
:101E400002F020FD28B903B05DF804FBFFF7C2FCE7
:101E5000F1E7FFF7BFFCF6E7781D00200010004017
:101E600000B585B00368B3F1804F08D01F4A934294
:101E70001AD01F4A93422BD005B05DF804FB002115
:101E8000019103F50E331A6C42F001021A641B6CC7
:101E900003F001030193019B0A461C2001F064F842
:101EA0001C2001F071F8E7E700210291114B1A6C38
:101EB00042F010021A641B6C03F010030293029BA1
:101EC0000A46362001F050F8362001F05DF8D3E7DD
:101ED00000230393074B1A6C42F040021A641B6CF8
:101EE00003F040030393039BC6E700BF00100040CC
:101EF000001800400038024000B587B0002301936D
:101F0000029303930493059302680F4B9A4202D005
:101F100007B05DF804FB002300930C4B1A6B42F0F2
:101F200002021A631B6B03F002030093009B4FF441
:101F300000430193022302930923059301A9044856
:101F400001F0A6FAE4E700BF0018004000380240A4
:101F50000004024000B58DB0002307930893099355
:101F60000A930B93009301930293039304930593B5
:101F700006931B481B4A0260436083604FF6FF7262
:101F8000C2600361836102F06DFAE8B9144802F09F
:101F900095FAE0B900230793089307A9104802F0C7
:101FA00047FCB8B960230093002301930293049384
:101FB000042269460A4802F0E5FA70B90848FFF7BA
:101FC0009BFF0DB05DF804FBFFF704FCDEE7FFF7B5
:101FD00001FCDFE7FFF7FEFBE4E7FFF7FBFBEDE7C4
:101FE000301D00200018004008B5FFF7A9F908BD12
:101FF00008B50A480A4B03604FF4E13343600023FD
:102000008360C36003610C2242618361C36102F09B
:1020100067FD00B908BDFFF7DDFBFBE74C1E0020A4
:102020000050004008B50A480A4B03604FF4E13302
:10203000436000238360C36003610C2242618361BB
:10204000C36102F04DFD00B908BDFFF7C3FBFBE71C
:10205000081E002000100140F0B58BB0002305934E
:1020600006930793089309930368364A934204D072
:10207000354A934239D00BB0F0BD00240094334B65
:102080001A6C42F480121A641A6C02F480120092E4
:10209000009A01941A6B42F004021A631A6B02F060
:1020A00004020192019A02941A6B42F008021A6328
:1020B0001B6B03F008030293029B4FF480530593BC
:1020C00002270697032608960825099505A92048A2
:1020D00001F0DEF904230593069707940896099505
:1020E00005A91C4801F0D4F9C5E700240394174B57
:1020F0005A6C42F010025A645A6C02F010020392B9
:10210000039A04941A6B42F001021A631B6B03F0EA
:1021100001030493049B4FF4C063059302230693C9
:10212000032308930723099305A90B4801F0B0F98D
:1021300022462146252000F017FF252000F024FF2D
:1021400099E700BF005000400010014000380240F5
:1021500000080240000C02400000024010B5044696
:102160000E4B1A784FF47A73B3FBF2F30C4A1068F3
:10217000B0FBF3F000F016FF68B90F2C01D9012075
:102180000AE0002221464FF0FF3000F0EDFE054B43
:102190001C60002000E0012010BD00BF08000020EE
:1021A000040000200C00002008B50B4B1A6842F414
:1021B00000721A601A6842F480621A601A6842F467
:1021C00080721A60032000F0BDFE0020FFF7C6FFFA
:1021D000FFF768FD002008BD003C0240034A11687B
:1021E000034B1B780B441360704700BF901E002008
:1021F00008000020014B1868704700BF901E0020A7
:102200004A4B5A6822F440325A605A6841680A437D
:102210005A600268536823F48073536002685368FD
:10222000016943EA012353600268536823F0407355
:1022300053600268536881680B4353600268936877
:1022400023F40063936002689368C1680B43936052
:10225000826A374B9A4257D00268936823F07063C2
:10226000936002689368816A0B4393600268936885
:1022700023F04053936002689368C16A0B439360F4
:102280000268936823F00203936002689368017EFA
:1022900043EA4103936090F82030002B3FD002685E
:1022A000536843F4006353600268536823F4604347
:1022B000536001684B68426A013A43EA42334B601B
:1022C0000268D36A23F47003D3620168CB6AC269DF
:1022D000013A43EA0253CB620268936823F4007325
:1022E00093600268936890F8301043EA412393604A
:1022F0000268936823F4806393600268936841697D
:1023000043EA8123936070470268936823F0706307
:1023100093600268936823F040539360B0E70268CB
:10232000536823F400635360CAE700BF00230140F1
:102330000100000F38B310B50446036C43B1236CA1
:1023400013F0100F0BD00120002384F83C3010BD97
:10235000FEF792FD0023636484F83C30EFE7236CC2
:1023600023F4885323F0020343F00203236420463E
:10237000FFF746FF00206064236C23F0030343F063
:1023800001032364E0E701207047000010B582B02C
:1023900013460022019290F83C20012A00F0AE8002
:1023A0000446012280F83C200268906810F0010F7A
:1023B00013D1906840F001009060534A1068534A6E
:1023C000A2FB0020800C00EB4000019002E001988D
:1023D0000138019001980028F9D12268906810F422
:1023E000807F03D0906820F48070906022689068AD
:1023F00010F0010F77D0206C20F4E06020F0010095
:1024000040F480702064526812F4806F05D0226C12
:1024100022F4405242F480522264226C12F4805F13
:1024200036D0626C22F006026264002284F83C20FE
:10243000A26B3748D063A26B36481064A26B364853
:10244000D06422686FF0220010602068426842F079
:10245000806242602068826842F4807282602068F4
:102460000A4600F14C01A06B00F092FE2B4B5B681A
:1024700013F01F0F27D12368294A934211D002F588
:102480008072934207D0274A934214D0002033E051
:1024900000226264C9E702F50072526812F01F0F51
:1024A000F1D19A6812F0405F2AD19A6842F08042D6
:1024B0009A60002020E002F58072526812F0100F3E
:1024C000EFD0002018E02368154A934201D0002085
:1024D00012E09A6812F0405F14D19A6842F080428C
:1024E0009A60002008E0236C43F010032364636CBF
:1024F00043F001036364002002B010BD0220FBE73B
:102500000020F9E70020F7E70400002083DE1B43EA
:10251000912600082B2500087B2600080023014097
:102520000020014000220140704708B5806BFFF792
:10253000FBFF08BD7047704770B5044603681E680E
:102540005D6816F0020F2FD005F0200262B3026C16
:1025500012F0100F03D1026C42F4007202649A6808
:1025600012F0405F19D1227EBAB9DA6A12F4700F04
:1025700003D09A6812F4806F0FD15A6822F02002BB
:102580005A60236C23F480732364236C13F4805FFC
:1025900003D1236C43F0010323642046FEF71CFDA6
:1025A00023686FF012021A6005F0800316F0040F22
:1025B00037D0002B35D0236C13F0100F03D1236CD0
:1025C00043F40053236423689A6812F4401F21D116
:1025D0009A6B12F4401F03D09A6812F4806F19D1DD
:1025E0005A6812F4806F15D19A6812F0405F11D1C9
:1025F000227E7AB95A6822F080025A60236C23F452
:1026000080532364236C13F4807F03D1236C43F045
:1026100001032364204600F04BF923686FF00C029D
:102620001A6005F0400316F0010F05D023B12368AE
:102630001B6813F0010F06D105F0806516F0200F1E
:1026400000D065B970BD236C43F480332364204609
:10265000FFF770FF23686FF001021A60ECE7636C0C
:1026600043F00203636423686FF020051D60204679
:10267000FFF761FF23681D60E4E708B5806B402326
:102680000364436C43F004034364FFF754FF08BD45
:1026900008B50346806B026C12F0500F25D1036C15
:1026A00043F40073036403689A6812F0405F19D121
:1026B000027EBAB9DA6A12F4700F03D09A6812F483
:1026C000806F0FD15A6822F020025A60036C23F405
:1026D00080730364036C13F4805F03D1036C43F0D5
:1026E00001030364FEF778FC08BD026C12F0100FC2
:1026F00004D1826BD26C18469047F5E7FFF71BFFB9
:10270000F2E7000030B482B00022019290F83C2041
:10271000012A00F0C0800346012280F83C200A68AC
:10272000092A40D90468E06892B202EB42021E3ADC
:102730004FF0070C0CFA02F220EA0202E2601C6879
:10274000E0680A8802EB42021E3A8D6805FA02F23E
:102750000243E2604A68062A3CD81C68606B02EBC0
:102760008202053A4FF01F0C0CFA02F220EA020234
:1027700062631C68606B4A6802EB8202053AB1F83A
:1027800000C00CFA02F2024362631868434A9042A6
:1027900050D01868414A904259D0002083F83C003C
:1027A00002B030BC70470468206992B202EB42026A
:1027B0004FF0070C0CFA02F220EA020222611C68B8
:1027C00020690A8802EB42028D6805FA02F2024390
:1027D0002261BFE70C2A16D81D68286B02EB820223
:1027E000233A1F2404FA02F220EA02022A631D6837
:1027F000286B4A6802EB8202233A0C8804FA02F240
:1028000002432A63C1E71D68E86A02EB8202413A8B
:102810001F2404FA02F220EA0202EA621D68E86A52
:102820004A6802EB8202413A0C8804FA02F202433F
:10283000EA62AAE70A68122AABD1194A506820F462
:1028400000005060506840F480005060A1E70A68C2
:102850001448824201D0112A9FD1114A506820F4B5
:1028600080005060506840F40000506009680D4AD4
:10287000914292D10C4A12680C49A1FB0212920CAF
:1028800002EB820252000192019A002A85D0019A3D
:10289000013A0192F8E7022082E700BF00200140E0
:1028A00000230140120000100400002083DE1B43BF
:1028B0007047002800F0A18038B5044690F8203019
:1028C000D3B12268136843F001031360FFF792FC51
:1028D000054623685A6812F0010F10D1FFF78AFCF1
:1028E000401B0A28F5D9636A43F400336362052369
:1028F00084F82030012038BDFEF710FCE1E71A68AB
:1029000022F002021A60FFF775FC054623685A6838
:1029100012F0020F0DD0FFF76DFC401B0A28F5D90D
:10292000636A43F400336362052384F82030012096
:10293000E1E7227E012A3DD01A6822F080021A6067
:10294000637E012B3BD02268136823F040031360A1
:10295000A37E012B39D02268136823F02003136073
:10296000E37E012B37D02268136843F01003136015
:10297000237F012B35D02268136823F008031360EE
:10298000637F012B33D02268136823F004031360A4
:10299000A368E268134322691343626913436268C0
:1029A000013A21681343CB6100206062012384F85F
:1029B0002030A0E71A6842F080021A60C0E722685F
:1029C000136843F040031360C2E72268136843F0C2
:1029D00020031360C4E72268136823F01003136018
:1029E000C6E72268136843F008031360C8E722684B
:1029F000136843F004031360CAE70120704730B541
:102A000090F820C00468A4680CF1FF3C5FFA8CFCCD
:102A1000BCF1010F6BD814F0E05F62D0C4F3016C1D
:102A2000BCF1020F05D9436A43F40003436201205D
:102A300062E0012404FA0CF41C608B68002B3DD189
:102A40000D68CB68046843EA45550CF118031B0177
:102A5000E55003680C690CF1180E03EB0E135C6073
:102A60000B7D012B35D0D17993791B0443EA0163A7
:102A7000517943EA012314790168234301EB0C11D6
:102A8000C1F88C31D17893781B0443EA0163517803
:102A900043EA0123117802680B4302EB0C12C2F8DF
:102AA000883102680CF1180C4FEA0C1C52F80C30FB
:102AB00043F0010342F80C3000201DE04C6843EA6B
:102AC000C403CC6823430CF11804240105682B517E
:102AD000BFE7036803EB0E13596841F48071596036
:102AE000C1E7436A43F400134362012004E0436AF0
:102AF00043F480234362012030BD90F82030013B35
:102B0000DBB2012B01D9002070470368986810F0F0
:102B1000806000D001209A6812F0006F00D0013070
:102B20009B6813F0805FEFD00130704790F820C0B1
:102B30000CF1FF3C5FFA8CFCBCF1010F00F29580B8
:102B400030B451B90468E46814F0030F10D1436A3B
:102B500043F400134362012077E00468246914F011
:102B6000030F05D1436A43F40013436201206CE074
:102B700001F11B04240105682C5904F0040494603D
:102B8000002C64D101F11B04240105682C59640D4B
:102B90001460046801F11B0C4FEA0C1C54F80C4043
:102BA00004F00204D46004686444646804F00F0410
:102BB0001461046864446468C4F30724946104687D
:102BC00064446468240C5461026802EB0112D2F878
:102BD000B8211A70026802EB0112D2F8B821C2F3D0
:102BE00007225A70026802EB0112D2F8B821C2F330
:102BF00007429A70026802EB0112D2F8B821120E55
:102C0000DA70026802EB0112D2F8BC211A71026874
:102C100002EB0112D2F8BC21C2F307225A710268FA
:102C200002EB0112D2F8BC21C2F307429A7102688A
:102C300002EB0112D2F8BC21120EDA7179B90268E6
:102C4000D36843F02003D360002030BC704701F10B
:102C50001B04240105682C59E408546099E70268B4
:102C6000136943F020031361EEE7436A43F48023C2
:102C70004362012070477047704770477047704744
:102C80007047704770477047704770472DE9F84F9D
:102C9000054603685C69D3F804809F68D3F80CA0EC
:102CA000D3F81090D3F818B014F001063BD017F009
:102CB000010616D001229A6017F0020F08D117F012
:102CC000040F0CD117F0080606D04FF4805608E028
:102CD000FFF7D1FF002604E0FFF7D0FF01E04FF43B
:102CE000006617F4807F0DD02B684FF480729A60D5
:102CF00017F4007F40F0968017F4806F00F0968004
:102D000046F4005617F4803F0DD02B684FF4803204
:102D10009A6017F4003F40F0938017F4802F00F082
:102D2000938046F4004614F0080F07D01AF0100FF5
:102D300004D046F400762B681022DA6014F0040FF9
:102D400003D01AF0080F40F0898014F0020F05D06C
:102D50002B68DB6813F0030F40F0878014F0400FFE
:102D600007D019F0100F04D046F480662B681022AB
:102D70001A6114F0200F02D019F0080F79D114F065
:102D8000100F04D02B681B6913F0030F78D114F4D3
:102D9000003F02D018F0100F76D114F4803F02D01B
:102DA00018F0080F77D114F4004F37D018F0040F43
:102DB00031D014F4807F04D01BF0010F01D046F015
:102DC000010614F4007F04D01BF0020F01D046F07E
:102DD000020614F4806F04D01BF0040F01D046F0FB
:102DE000040614F4006F16D01BF0700B13D0BBF167
:102DF000400F66D056D8BBF1200F5CD0BBF1300F2E
:102E00005CD0BBF1100F01D146F008062A68936927
:102E100023F0700393612B6804225A60002E56D170
:102E2000BDE8F88F2846FFF727FF6BE717F4006F20
:102E300002D046F4804665E72846FFF720FF61E7A9
:102E40002846FFF71AFF6EE717F4002F02D046F46A
:102E5000803668E72846FFF713FF64E72B680822EF
:102E6000DA602846FFF70DFF6FE72846FEF7B2FB52
:102E700074E72B6808221A612846FFF704FF7EE7F3
:102E80002846FFF7FFFE82E72B6810225A6028468B
:102E9000FFF7FAFE81E72B6808225A602846FFF701
:102EA000F4FE80E7BBF1500F0ED0BBF1600FADD147
:102EB00046F48076AAE746F01006A7E746F020061B
:102EC000A4E746F04006A1E746F080069EE76B6A5D
:102ED00033436B622846FEF771FBA1E7002808DB4D
:102EE0000901C9B200F1604000F5614080F80013AB
:102EF000704700F00F000901C9B2014B1954704727
:102F000014ED00E000B500F00700C0F1070CBCF1C3
:102F1000040F28BF4FF0040C031D062B0FD9C31E4E
:102F20004FF0FF3E0EFA0CF021EA000199400EFA34
:102F300003FE22EA0E0241EA02005DF804FB0023D0
:102F4000EEE70000074AD36823F4E0631B041B0C80
:102F5000000200F4E060034343F0BF6343F4003336
:102F6000D360704700ED00E010B50446054BD8680B
:102F7000C0F30220FFF7C6FF01462046FFF7AEFF71
:102F800010BD00BF00ED00E0002807DB00F01F02CD
:102F9000400901239340024A42F82030704700BFA5
:102FA00000E100E00138B0F1807F0BD24FF0E02368
:102FB0005861054AF02182F8231000209861072209
:102FC0001A6170470120704700ED00E030B40568D9
:102FD0002C6824F480242C60046863608368402B90
:102FE00005D0036899600368DA6030BC70470368F5
:102FF0009A600368D960F8E710B40368D9B2103951
:103000000A4AA2FB01421209094CA25CC2655F296F
:1030100007D96FF3090304338365806D5DF8044BB2
:1030200070476FF309038365F7E700BFABAAAAAA4D
:1030300088840008836A826992B9012B0AD0022B26
:1030400002D00BB100207047C36A13F0807F28D1F3
:1030500000207047C36AB3F1C07F24D000207047BE
:10306000B2F5005F09D0022B25D9032B25D1C36A05
:1030700013F0807F23D100207047032B03D8DFE8B3
:1030800003F01404140A00207047C36A13F0807F11
:103090000DD100207047C36AB3F1C07F09D0002072
:1030A00070470120704701207047012070470120C0
:1030B00070470120704701207047002070470120B1
:1030C0007047000070B50446FFF794F8002C5BD001
:1030D0000546022384F83530002384F83430226812
:1030E000136823F00103136023681A6812F0010FBC
:1030F0000AD0FFF77FF8431B052BF5D92023636522
:10310000032084F8350070BD1A68204911406268B8
:10311000A0680243E06802432069024360690243F9
:10312000A0690243E0690243206A02430A43616ADC
:1031300004291ED01A602668756925F00705636AA0
:103140001D43042B07D1A36A1D43E36A1BB120462C
:10315000FFF770FF90B975612046FFF74DFFE26DF4
:103160003F239340836000206065012384F835305D
:10317000C9E7E16A206B01430A43DBE7402363654B
:10318000012084F83500BEE70120BCE73F8010F045
:1031900038B50446856D90F8340001282BD0012005
:1031A00084F8340094F83500C0B2012804D000231C
:1031B00084F83430022038BD022084F83500002025
:1031C00060652046FFF702FFE26D3F239340AB604E
:1031D0002268136843F016031360236C23B122683E
:1031E000136843F0080313602268136843F0010377
:1031F00013600020DFE70220DDE770B50446866D2E
:10320000FEF7F8FF94F83530DBB2022B06D08023AE
:103210006365002384F83430012070BD05462268C0
:10322000136823F0160313602268536923F08003A8
:103230005361236CE3B12268136823F00803136021
:103240002268136823F00103136023681B6813F0DE
:10325000010F11D0FEF7CEFF431B052BF5D920231C
:103260006365032084F83500002384F83430D4E704
:10327000A36C002BDFD1E3E7E26D3F239340B36003
:10328000012384F83530002084F83400C5E790F835
:103290003530DBB2022B03D0802343650120704719
:1032A000052380F835300268136823F001031360AA
:1032B00000207047F0B583B0044600230193724BA1
:1032C0001D68724BA3FB0535AD0A876D3E68C26D64
:1032D00008239340334210D003681A6812F0040F99
:1032E0000BD01A6822F004021A60C26D08239340C2
:1032F000BB60436D43F001034365E26D01239340DE
:10330000334209D02268526912F0800F04D0BB60AA
:10331000636D43F002036365E26D0423934033421F
:1033200009D02268126812F0020F04D0BB60636DEE
:1033300043F004036365E26D10239340334224D0CD
:103340002268126812F0080F1FD0BB6023681A6849
:1033500012F4802F0DD01B6813F4002F04D1236CBE
:103360009BB12046984710E0A36C73B12046984764
:103370000BE01A6812F4807F03D11A6822F0080269
:103380001A60236C0BB120469847E26D20239340CE
:10339000334255D02268126812F0100F50D0BB6033
:1033A00094F83530DBB2052B0ED023681A6812F47E
:1033B000802F33D01B6813F4002F2AD1636C002BAD
:1033C0003ED0204698473BE02268136823F016035E
:1033D00013602268536923F080035361236CA3B107
:1033E0002268136823F008031360E26D3F239340C3
:1033F000BB60012384F83530002384F83430236D1A
:10340000002B3FD0204698473CE0A36C002BE7D12F
:10341000EBE7E36BA3B12046984711E01A6812F47A
:10342000807F09D11A6822F010021A60012384F803
:103430003530002384F83430E36B0BB120469847D5
:10344000636DFBB1636D13F0010F17D0052384F892
:1034500035302268136823F001031360019B0133A8
:103460000193AB4204D823681B6813F0010FF5D118
:10347000012384F83530002384F83430E36C0BB139
:103480002046984703B0F0BD04000020B5814E1BD4
:1034900000230F2B00F2E38070B582B065E08568F1
:1034A0004FEA430E032404FA0EF425EA0405CC681F
:1034B00004FA0EF42C438460446824EA02044A6847
:1034C000C2F300129A40224342605CE0DC080834F8
:1034D00050F8242003F00705AD004FF00F0E0EFA50
:1034E00005FE22EA0E0E0A69AA4042EA0E0240F8E0
:1034F00024205CE0062200E0002202FA0EF22A43B9
:103500000234574D45F82420564A94686FEA0C025D
:1035100024EA0C054E6816F4801F01D04CEA04051D
:10352000504CA560E46802EA04054E6816F4001FDA
:1035300001D04CEA04054B4CE560646802EA0405DE
:103540004E6816F4003F01D04CEA0405454C656016
:10355000246822404D6815F4803F01D04CEA0402F3
:10356000404C226001330F2B77D801229A400C681F
:1035700004EA020C32EA0404F4D14C6804F00304B7
:10358000013C012C8BD94A6802F00302032A09D0BE
:10359000C4685D000322AA4024EA02048A68AA40A3
:1035A0002243C2604A6802F00302022A8ED00468F5
:1035B0004FEA430E032202FA0EF224EA02044A689A
:1035C00002F0030202FA0EF2224302604A6812F489
:1035D000403FC7D000220192234A546C44F48044F7
:1035E0005464526C02F480420192019A9C08A51C1A
:1035F0001B4A52F8255003F0030E4FEA8E0E0F229D
:1036000002FA0EF225EA0205184A90423FF474AF1E
:1036100002F58062904216D002F58062904214D08A
:1036200002F58062904212D002F58062904210D082
:1036300002F5806290420ED002F5806290423FF423
:1036400059AF072259E7012257E7022255E7032223
:1036500053E7042251E705224FE702B070BD7047DF
:1036600000380140003C01400038024000000240A8
:103670000369194201D001207047002070470AB148
:1036800081617047090481617047000010B582B004
:1036900000230193194B1A6C42F080521A641B6C80
:1036A00003F080530193019B154B01221A64FEF72E
:1036B000A1FD0446134B5B6813F4803F08D1FEF76D
:1036C00099FD001BB0F57A7FF4D9032002B010BD3C
:1036D0000B4B01225A64FEF78DFD0446094B5B68D3
:1036E00013F4003F07D1FEF785FD001BB0F57A7F8C
:1036F000F4D90320EAE70020E8E700BF00380240E1
:1037000000000E4200700040002800F09B8070B561
:103710000D4604464F4B1B6803F00F038B4208D243
:10372000CBB24C4A1370136803F00F038B4240F086
:103730008B80236813F0020F17D013F0040F04D00E
:10374000454A936843F4E0539360236813F0080FED
:1037500004D0414A936843F4604393603E4A9368BF
:1037600023F0F003A1680B439360236813F0010F6B
:1037700032D06368012B21D09A1E012A25D9364AFE
:10378000126812F0020F61D033498A6822F00302F6
:1037900013438B60FEF72EFD06462F4B9B6803F00C
:1037A0000C036268B3EB820F16D0FEF723FD801B7B
:1037B00041F288339842F0D9032042E0264A126849
:1037C00012F4003FE0D101203BE0234A126812F0DE
:1037D000007FD9D1012034E01E4B1B6803F00F039A
:1037E000AB4207D9EAB21B4B1A701B6803F00F03F8
:1037F000AB422DD1236813F0040F06D0164A93680C
:1038000023F4E053E1680B439360236813F0080F3F
:1038100007D0114A936823F46043216943EAC10346
:10382000936000F065F80C4B9B68C3F303130B4ADD
:10383000D35CD8400A4B18600A4B1868FEF78EFC20
:10384000002070BD012070470120FAE70120F8E751
:103850000120F6E7003C024000380240788400086E
:10386000040000200C000020014B1868704700BFC6
:103870000400002008B5FFF7F7FF044B9B68C3F373
:103880008223034AD35CD84008BD00BF0038024001
:103890007084000808B5FFF7E7FF044B9B68C3F38B
:1038A0004233034AD35CD84008BD00BF0038024011
:1038B000708400080F2303600B4B9A6802F0030228
:1038C00042609A6802F0F00282609A6802F4E05264
:1038D000C2609B68DB0803F4E0530361034B1B6881
:1038E00003F00F030B60704700380240003C0240B9
:1038F00008B5604B9B6803F00C03082B06D00C2B1B
:103900005ED0042B40F0B4805B4833E0594B5A68DA
:1039100002F03F025B6813F4800F2CD0554B5868BF
:10392000C0F388104FEA401CBCEB000C6EEB0E0E8F
:103930004FEA8E1343EA9C634FEA8C11B1EB0C0102
:1039400063EB0E03DB0043EA5173C90011EB000C7B
:1039500043F10003590200234FEA4C2041EADC51B5
:10396000FDF742F9434B5B68C3F3014301335B004E
:10397000B0FBF3F008BD3F4B5868C0F388104FEA26
:10398000401CBCEB000C6EEB0E0E4FEA8E1343EAAC
:103990009C634FEA8C11B1EB0C0163EB0E03DB006F
:1039A00043EA5173C90011EB000C43F10003990283
:1039B00000234FEA8C2041EA9C51FDF715F9D1E72D
:1039C0002C4B5A6802F03F025B6813F4800F2AD038
:1039D000284B5868C0F388104FEA401CBCEB000C21
:1039E0006EEB0E0E4FEA8E1343EA9C634FEA8C1186
:1039F000B1EB0C0163EB0E03DB0043EA5173C9002A
:103A000011EB000C43F10003590200234FEA4C2054
:103A100041EADC51FDF7E8F8164B5B68C3F302732B
:103A2000B0FBF3F0A6E7134B5868C0F388104FEAD9
:103A3000401CBCEB000C6EEB0E0E4FEA8E1343EAFB
:103A40009C634FEA8C11B1EB0C0163EB0E03DB00BE
:103A500043EA5173C90011EB000C43F100039902D2
:103A600000234FEA8C2041EA9C51FDF7BDF8D3E7D3
:103A700002487FE70038024000127A000024F40078
:103A8000002800F0018270B582B00446036813F08C
:103A9000010F41D0994B9B6803F00C03042B32D0EB
:103AA000964B9B6803F00C03082B27D0934B9B6825
:103AB00003F00C030C2B59D06368B3F5803F5BD047
:103AC000B3F5A02F5ED08D4B1A6822F480321A60B5
:103AD0001A6822F480221A606368002B5CD0FEF71B
:103AE00089FB0546854B1B6813F4003F14D1FEF794
:103AF00081FB401B6428F5D90320CCE17F4B5B6838
:103B000013F4800FD2D07D4B1B6813F4003F03D019
:103B10006368002B00F0BA81236813F0020F60D0B5
:103B2000764B9B6813F00C0F4AD0744B9B6803F0E4
:103B30000C03082B3FD0714B9B6803F00C030C2B3C
:103B400069D0E368002B75D06D4B01221A60FEF737
:103B500051FB0546694B1B6813F0020F61D1FEF75C
:103B600049FB401B0228F5D9032094E1634B5B68B5
:103B700013F4800FA0D0C6E7604A136843F4803383
:103B80001360A9E75D4B1A6842F480221A601A6834
:103B900042F480321A609FE7FEF72CFB0546574B34
:103BA0001B6813F4003FB7D0FEF724FB401B6428CA
:103BB000F5D903206FE1514B5B6813F4800FBAD144
:103BC0004E4B1B6813F0020F03D0E368012B40F04B
:103BD0005F814A4A136823F0F803216943EAC1036D
:103BE0001360236813F0080F49D06369002B33D0AA
:103BF000434B0122C3F8802EFEF7FCFA05463F4BEB
:103C00005B6F13F0020F3AD1FEF7F4FA401B022863
:103C1000F5D903203FE1394B5B6813F4800F90D155
:103C2000CEE7364A136823F0F803216943EAC1035B
:103C30001360D6E7324B00221A60FEF7DBFA054626
:103C40002E4B1B6813F0020FCBD0FEF7D3FA401BAC
:103C50000228F5D903201EE1294B0022C3F8802E4B
:103C6000FEF7C8FA0546254B5B6F13F0020F06D02E
:103C7000FEF7C0FA401B0228F5D903200BE12368A8
:103C800013F0040F76D01D4B1B6C13F0805F33D103
:103C900000230193194B1A6C42F080521A641B6C7A
:103CA00003F080530193019B0125164B1B6813F40D
:103CB000807F29D0A368012B3AD0052B3ED00F4B33
:103CC0001A6F22F001021A671A6F22F004021A67B3
:103CD000A368002B3CD0FEF78DFA0646074B1B6FFE
:103CE00013F0020F45D1FEF785FA801B41F28833AD
:103CF0009842F3D90320CEE00025D6E700380240F1
:103D000000004742007000406B4A136843F4807320
:103D10001360FEF76FFA0646674B1B6813F4807F4B
:103D2000C8D1FEF767FA801B0228F5D90320B2E05C
:103D3000624A136F43F001031367C9E75F4B1A6FC1
:103D400042F004021A671A6F42F001021A67BFE7D5
:103D5000FEF750FA0646594B1B6F13F0020F08D0BE
:103D6000FEF748FA801B41F288339842F3D90320CA
:103D700091E0EDB9A369002B00F08C804F4A926866
:103D800002F00C02082A54D0022B17D04C4B002210
:103D90001A66FEF72FFA0446484B1B6813F0007FA3
:103DA00045D0FEF727FA001B0228F5D9032072E060
:103DB000424A136C23F080531364DBE7404B00222C
:103DC0001A66FEF717FA05463C4B1B6813F0007F96
:103DD00006D0FEF70FFA401B0228F5D903205AE05F
:103DE000E369226A1343626A43EA8213A26A5208B1
:103DF000013A43EA0243E26A43EA0263226B43EA7E
:103E000002732E4A53602E4B01221A66FEF7F2F916
:103E100004462A4B1B6813F0007F06D1FEF7EAF92F
:103E2000001B0228F5D9032035E0002033E00020F4
:103E300031E0012B31D0214B5B6803F48001E26952
:103E400091422CD103F03F02216A8A4229D1616A52
:103E500047F6C0721A40B2EB811F24D103F44031FF
:103E6000A26A5208013AB1EB024F1ED103F0706210
:103E7000E16AB2EB016F1AD103F0E043226BB3EBBE
:103E8000027F16D1002006E001207047012002E0E9
:103E9000012000E0002002B070BD0120FBE70120FE
:103EA000F9E70120F7E70120F5E70120F3E701201A
:103EB000F1E70120EFE700BF00700040003802404A
:103EC0000000474200285AD010B50446436A33B96F
:103ED0004368B3F5827F05D00023C36102E000236D
:103EE000036143610023A36294F85130002B40D05A
:103EF000022384F851302268136823F040031360D2
:103F0000636803F48273A26802F404421343E26814
:103F100002F400621343226902F002021343626951
:103F200002F001021343A26902F400721343E26932
:103F300002F038021343226A02F080021343A26A9D
:103F400002F40052216813430B60638B03F00403F7
:103F5000626A02F01002216813434B602268D36941
:103F600023F40063D36100206065012384F851309D
:103F700010BD84F850302046FDF708FEB8E7012058
:103F80007047000030B4036A23F001030362036A40
:103F90004268846924F0730C0C6844EA0C0423F032
:103FA000020C8B6843EA0C03114DA84203D005F5BF
:103FB0008065A84205D123F00803CD682B4323F088
:103FC00004030B4DA84203D005F58065A84207D134
:103FD00022F440724D6945EA020C8A6942EA0C02F9
:103FE000426084614A684263036230BC704700BF2C
:103FF0000000014030B4036A23F480730362036A53
:104000004268C46924F0730C0C6844EA0C0523F47C
:1040100000738C6843EA0423114CA04203D004F5DA
:104020008064A04206D123F40063CC6843EA0423F1
:1040300023F480630A4CA04203D004F58064A042BC
:1040400007D122F440524C6942EA04128C6942EAD8
:1040500004124260C5614A68C263036230BC7047A3
:104060000000014030B4036A23F480530362036A02
:104070004468C26922F4E6420D6842EA052223F44C
:1040800000538D6843EA0533094DA84203D005F576
:104090008065A84204D124F480444D6944EA851423
:1040A0004460C2614A680264036230BC704700BF6A
:1040B0000000014010B4036A046A24F001040462A1
:1040C000846924F0F00C4CEA021223F00A030B433B
:1040D000826103625DF8044B704710B4036A23F0F9
:1040E000100303628469036A24F4704C4CEA0232C0
:1040F00023F0A00343EA0113826103625DF8044BDD
:104100007047836823F070030B4343F00703836019
:104110007047000090F83D30DBB2012B32D1022312
:1041200080F83D300368194A934220D0B3F1804FA4
:104130001DD0A2F57C42934219D002F580629342D1
:1041400015D002F58062934211D002F57842934275
:104150000DD002F57052934209D0A2F594329342E9
:1041600005D01A6842F001021A60002070479A6870
:1041700002F00702062A07D01A6842F001021A600C
:104180000020704701207047002070470000014068
:1041900090F83D30DBB2012B37D1022380F83D305F
:1041A0000268D36843F00103D3600368194A93425D
:1041B00020D0B3F1804F1DD0A2F57C42934219D09C
:1041C00002F58062934215D002F58062934211D0CD
:1041D00002F5784293420DD002F57052934209D015
:1041E000A2F59432934205D01A6842F001021A6097
:1041F000002070479A6802F00702062A07D01A6862
:1042000042F001021A600020704701207047002030
:10421000704700BF0000014070477047704770470B
:10422000704710B5044603681A6912F0020F11D0E6
:10423000DA6812F0020F0DD06FF002021A6101234A
:10424000037703689B6913F0030F70D0FFF7E6FF55
:104250000023237723681A6912F0040F12D0DA685A
:1042600012F0040F0ED06FF004021A6102232377BC
:1042700023689B6913F4407F5FD02046FFF7CEFF91
:104280000023237723681A6912F0080F12D0DA6826
:1042900012F0080F0ED06FF008021A610423237782
:1042A0002368DB6913F0030F4ED02046FFF7B6FFFB
:1042B0000023237723681A6912F0100F12D0DA68EE
:1042C00012F0100F0ED06FF010021A61082323773E
:1042D0002368DB6913F4407F3DD02046FFF79EFF43
:1042E0000023237723681A6912F0010F03D0DA68DC
:1042F00012F0010F36D123681A6912F0800F03D033
:10430000DA6812F0800F34D123681A6912F0400F76
:1043100003D0DA6812F0400F32D123681A6912F024
:10432000200F03D0DA6812F0200F30D110BDFFF754
:1043300074FF2046FFF773FF8AE72046FFF76DFF03
:104340002046FFF76CFF9BE72046FFF766FF2046FD
:10435000FFF765FFACE72046FFF75FFF2046FFF75A
:104360005EFFBDE76FF001021A612046FDF73CFEDB
:10437000C1E76FF080021A61204600F0CAFAC3E775
:104380006FF040021A612046FFF74AFFC5E76FF061
:1043900020021A61204600F0BBFAC7E70368304AE2
:1043A000904212D0B0F1804F0FD0A2F57C429042E3
:1043B0000BD002F58062904207D002F580629042F5
:1043C00003D002F57842904203D123F070034A688B
:1043D0001343234A90422AD0B0F1804F27D0A2F550
:1043E0007C42904223D002F5806290421FD002F5B9
:1043F000806290421BD002F57842904217D002F5BD
:104400007052904213D002F5806290420FD002F5B4
:10441000806290420BD0A2F59832904207D002F50C
:104420008062904203D002F58062904203D123F46F
:104430004073CA68134323F080034A69134303603F
:104440008B68C3620B688362054B984203D003F507
:104450008063984201D10B69036301234361704774
:104460000000014040B310B5044690F83D30F3B170
:10447000022384F83D30214651F8040BFFF78EFFEC
:10448000012384F8463084F83E3084F83F3084F8C5
:10449000403084F8413084F8423084F8433084F866
:1044A000443084F8453084F83D30002010BD80F859
:1044B0003C30FDF7D5FCDBE70120704740B310B579
:1044C000044690F83D30F3B1022384F83D30214694
:1044D00051F8040BFFF762FF012384F8463084F89B
:1044E0003E3084F83F3084F8403084F8413084F81E
:1044F000423084F8433084F8443084F8453084F8FE
:104500003D30002010BD80F83C30FFF785FEDBE732
:104510000120704730B4036A23F010030362036A7A
:104520004468826922F4E6420D6842EA052223F0DB
:1045300020038D6843EA0513114DA84203D005F509
:104540008065A84206D123F08003CD6843EA0513B5
:1045500023F040030A4DA84203D005F58065A84228
:1045600007D124F440644D6944EA85048D6944EA26
:104570008504446082614A688263036230BC70478C
:104580000000014038B590F83C30012B66D004465D
:104590000D46012380F83C300C2A5AD8DFE802F09F
:1045A000075959591B5959593059595944000068EC
:1045B000FFF7E8FC2268936943F0080393612268DF
:1045C000936923F0040393612268936929690B437B
:1045D000936100203EE00068FFF79CFF226893692A
:1045E00043F4006393612268936923F480639361C9
:1045F00022689369296943EA01239361002029E035
:104600000068FFF7F7FC2268D36943F00803D36121
:104610002268D36923F00403D3612268D36929692E
:104620000B43D361002015E00068FFF71BFD2268F3
:10463000D36943F40063D3612268D36923F48063B0
:10464000D3612268D369296943EA0123D361002039
:1046500000E00120002384F83C3038BD0220FCE754
:1046600010B4846824F47F4C42EA03220A4342EAED
:104670000C0282605DF8044B704790F83C30012BCF
:1046800078D010B50446012380F83C30022380F82E
:104690003D300268936823F47F4323F077039360EF
:1046A0000B68602B4CD023D8402B54D011D8202B32
:1046B00003D00AD80BB1102B05D119462068FFF79B
:1046C00020FD002028E0012026E0302BF5D001203D
:1046D00022E0502B0AD1CA6849680068FFF7EAFC5B
:1046E00050212068FFF70DFD002015E0012013E0A8
:1046F000B3F5805F3AD0B3F5005F14D0702B37D19B
:10470000CB684A6889680068FFF7AAFF2268936847
:1047100043F0770393600020012384F83D300023A9
:1047200084F83C3010BDCB684A6889680068FFF7A0
:1047300097FF2268936843F4804393600020EBE77F
:10474000CA6849680068FFF7C8FC60212068FFF765
:10475000D8FC0020E0E7CA6849680068FFF7AAFCB7
:1047600040212068FFF7CDFC0020D5E70020D3E7EB
:104770000120D1E70220704710B50468A26822F03A
:1047800070024B68134323F007030A681A43A260C0
:104790004B68502B30D00BD9602B34D0702B43D1C9
:1047A0000B698A68C9680068FFF75AFF002010BDCE
:1047B000402B0CD02ED8202B2ED004D873B3102B26
:1047C0002ED10020F3E7302B2CD10020EFE70B682F
:1047D000052B2BD003681C6A1A6A22F001021A62A8
:1047E0000268936923F0F003096943EA01139361B6
:1047F00003681C620020DAE70A6989680068FFF72D
:1048000059FC0020D3E70A6989680068FFF765FC56
:104810000020CCE70120CAE70020C8E70020C6E757
:104820000120C4E70120C2E70120C0E70120BEE764
:1048300090F83C30012B22D010B50446012380F8BB
:104840003C30022380F83D30FFF796FF80B92268A4
:10485000D36823F04003D3602268D36823F48043F5
:10486000D360012384F83D30002384F83C3010BD30
:10487000012084F83D00002384F83C30F7E7022053
:104880007047000090F83C20012A3DD010B4034648
:10489000012280F83C20022280F83D200268506806
:1048A000946820F0700C086840EA0C0050601A68A8
:1048B000164882421AD0B2F1804F17D0A0F57C4042
:1048C000824213D000F5806082420FD000F58060F4
:1048D00082420BD000F57840824207D000F570503C
:1048E000824203D0A0F59430824204D124F08004A7
:1048F000496821439160012283F83D20002083F81C
:104900003C005DF8044B70470220704700000140F6
:1049100070477047026802F10C0353E8003F23F42C
:1049200090730C3242E800310029F3D1026802F1A1
:10493000140353E8003F23F00103143242E800312E
:104940000029F3D1036B012B05D0202380F83E30E2
:10495000002303637047026802F10C0353E8003F31
:1049600023F010030C3242E800310029F3D1ECE7C8
:1049700090F83D30DBB2212B01D0022070478368D4
:10498000B3F5805F17D0036A5A1C02621A78036875
:104990005A60C38C9BB2013B9BB2C3844BB9026883
:1049A000D36823F08003D3600268D36843F04003E8
:1049B000D360002070470369002BE4D1036A1B8891
:1049C0000268C3F308035360036A02330362E0E73B
:1049D00010B504460268136923F44053C1680B43C1
:1049E0001361836802691A4343691A43C3691A430E
:1049F0000168CB6823F4164323F00C031343CB6008
:104A00000268536923F4407381690B43536103685F
:104A1000314A934206D002F58062934202D0FEF7FB
:104A200029FF01E0FEF736FFE369B3F5004F29D017
:104A30000021031849411B1841F10001C90041EA56
:104A40005371DB00181863684FEA83024FEA9373CF
:104A500041F10001FCF7C8F8204AA2FB00314909E6
:104A6000642303FB11031B013233A2FB03235B0905
:104A700003F0F00202EB011203F00F03216813446C
:104A80008B6010BD0023021843EB0301121841F1A3
:104A90000001C90041EA5271D200101841F1000131
:104AA000626892185B41FCF79FF80C4AA2FB003148
:104AB0004909642303FB1103DB003233A2FB032308
:104AC0005B095A0002F4F87202EB011203F00703CB
:104AD000216813448B60D4E7001001401F85EB511F
:104AE00058B310B5044690F83D300BB3242384F836
:104AF0003D302268D36823F40053D3602046FFF78B
:104B000067FF2268136923F4904313612268536995
:104B100023F02A0353612268D36843F40053D3601F
:104B200000202064202384F83D3084F83E3010BDFE
:104B300080F83C30FDF790FAD8E70120704790F8F4
:104B40003D30DBB2202B19D1D1B1DAB190F83C3035
:104B5000012B19D0012380F83C3001628284C28489
:104B600000230364212280F83D2080F83C30016856
:104B7000CA6842F08002CA60184670470220704737
:104B8000012070470120704702207047704708B528
:104B90000168CA6822F04002CA60202280F83D20E5
:104BA000FFF7F4FF002008BD7047704708B5806B21
:104BB0000023C385C384FFF7F8FF08BD704790F852
:104BC0003E30DBB2222B67D18368B3F5805F4DD0D6
:104BD000826AB3F5805F04D0002B54D10369002BA7
:104BE00051D103685B681370836A01338362C38D9C
:104BF0009BB2013B9BB2C385002B4FD100B583B064
:104C00000268D36823F02003D3600268D36823F4DA
:104C10008073D3600268536923F00103536120233A
:104C200080F83E30036B012B33D10023036302680D
:104C300002F10C0353E8003F23F010030C3242E86A
:104C400000310029F3D103681A6812F0100F06D062
:104C5000002201921A6801925B680193019B818D89
:104C6000FFF7ACFF002003B05DF804FB0269002AE7
:104C7000AED1826A03685B68C3F308031380836A5A
:104C800002338362B3E703685B6803F07F0313704A
:104C9000AAE7FFF789FFE5E7022070470020704789
:104CA00010B582B0044602681368D068516913F0E9
:104CB0000F0F09D113F0200F0CD010F0200F09D0E6
:104CC0002046FFF77CFF16E011F0010115D110F42A
:104CD000907F12D1216B012979D013F0800F03D07E
:104CE00010F0800F40F0108113F0400F03D010F04F
:104CF000400F40F00D8102B010BD13F0010F06D03F
:104D000010F4807F03D0226C42F00102226413F081
:104D1000040F04D019B1226C42F00202226413F095
:104D2000020F04D019B1226C42F00402226413F085
:104D3000080F07D010F0200F00D119B1226C42F0FB
:104D400008022264226C002AD5D013F0200F02D072
:104D500010F0200F29D123685B6903F04003226C17
:104D600012F0080F00D163B32046FFF7D3FD23688C
:104D70005B6913F0400F20D0226802F1140353E85E
:104D8000003F23F04003143242E800310029F3D100
:104D9000A36B73B1604A1A65A06BFEF778FA00281E
:104DA000A9D0A06B036D9847A5E72046FFF707FF42
:104DB000D1E72046FFF7F9FE9DE72046FFF7F5FE15
:104DC00099E72046FFF7F1FE0023236493E713F0F1
:104DD000100F82D010F0100F3FF47FAF002301932B
:104DE0001368019353680193019B536913F0400FBB
:104DF00050D0A26B13685B689BB2002B3FF47BAF73
:104E0000A18D99427FF677AFE385D369B3F5807FB3
:104E100037D0226802F10C0353E8003F23F480737B
:104E20000C3242E800310029F3D1226802F1140368
:104E300053E8003F23F00103143242E80031002917
:104E4000F3D1226802F1140353E8003F23F040033A
:104E5000143242E800310029F3D1202384F83E3097
:104E600000232363226802F10C0353E8003F23F080
:104E700010030C3242E800310029F3D1A06BFEF799
:104E8000BCF9A18DE38D9BB2C91A89B22046FFF708
:104E900095FE30E7A18DE38D9BB2C91A89B2E38DEF
:104EA0009BB2002B3FF427AF00293FF424AF2268C8
:104EB00002F10C0353E8003F23F490730C3242E8F4
:104EC00000300028F3D1226802F1140353E8003FB8
:104ED00023F00103143242E800300028F3D12023EC
:104EE00084F83E3000232363226802F10C0353E868
:104EF000003F23F010030C3242E800300028F3D1C9
:104F00002046FFF75BFEF6E62046FFF731FDF2E6AE
:104F10002046FFF73CFEEEE6AD4B0008844648B164
:104F200051B15BB1016042600020CCF80800CCF8C0
:104F30000C307047012070470120704701207047F6
:104F40000CB42DE9F04385B00C9D002855D00446E3
:104F5000002D54D082684368013B9A4251D2EFF34E
:104F60001087012383F3108802688368581CA060AF
:104F70000D20D0542268A368581CA0600A20D05489
:104F8000032940D8DFE801F002363033DFF884909F
:104F90002268A36802EB03086668F61A013EFDF773
:104FA00029F900904B461A4A3146404600F0D0FE9F
:104FB000A3681844A0600DAB039326686168091AC2
:104FC0002A460139304400F065FFA3680344A3601A
:104FD00087F31088A26863689A4216D2002005B051
:104FE000BDE8F04302B07047DFF82C90D0E7DFF85F
:104FF0002C90CDE7DFF82890CAE70120EFE70120E9
:10500000EDE70120EBE70120E9E70120E7E700BF3A
:10501000E084000890840008B8840008CC8400086C
:10502000A484000870B110B50446816861B1C368FA
:1050300000689847054B187018B922680023137050
:10504000A36010BD012070470020FAE7941E0020E5
:10505000002846D02DE9704315460446002942D069
:105060000160A260084600F0FFF807EE100AB8EEF3
:10507000477A23681E68B36A013307EE903AF8EE68
:10508000677AC7EE277A17EE900AFBF75DFA80463B
:1050900089462846FBF736FA0022154BFBF7D6FB6C
:1050A00002460B4640464946FBF7A6FA0022104B43
:1050B000FBF7CCFBFBF778FD0138B6F1804F05D04C
:1050C0000C4B9E4202D0B0F5803F0ED2F0622368B6
:1050D000D8600020606084F81009C4F80C09BDE8AD
:1050E0007083012070470120F9E70120F7E700BF36
:1050F00000408F40000C004070B370B50C4616465F
:1051000005468268B1FBF2F302FB131333BB90F840
:105110001039202B24D0B3B195F8102902EBC2032B
:1051200005EBC303DC60531C03EBC30305EBC303B4
:105130000021197206B1327095F81039013385F8E3
:105140001039002070BD03681B686FF001021A61FE
:105150000068FFF71DF8DFE7012070470120F1E745
:105160000120EFE78446D0B14B1C03EBC30300EBF7
:10517000C303187A102814D0AAB101EBC10300EBC5
:10518000430302330CEB83039A60013101EBC1014D
:105190000CEBC10C01308CF8080000207047012096
:1051A0007047012070470120704790B32DE9F0410E
:1051B000064600271AE005EBC50304EB4303023360
:1051C00006EB83039B6898470134E4B26B1C03EB46
:1051D000C30306EBC3031B7AA342ECD8D6F80C3901
:1051E00023EA0803C6F80C390137FFB296F81039E4
:1051F000BB420BD9D6F80C393D464FF0010808FAEE
:1052000007F813EA080FEFD00024DFE70020BDE81D
:10521000F08101207047F8B503688B4200D0F8BDDB
:1052200005464668013646608768A6FB0776002477
:1052300001E00134E4B295F81039A342EFD904EB50
:10524000C40305EBC303DA68002338463146FBF795
:10525000CBFC1343EDD1D5F80C390122A240134306
:10526000C5F80C39E5E7000010B586B0044669467C
:1052700001A8FEF71FFB2268064B9A4206D8049C41
:10528000FEF7F8FA04B1400006B010BD059CFEF729
:1052900001FBF7E7FFFF0040DFF834D00D480E496F
:1052A0000E4A002302E0D458C4500433C4188C4280
:1052B000F9D30B4A0B4C002301E013600432A242E5
:1052C000FBD3FCF763FD00F045FEFCF7DFFA704707
:1052D0000000022000000020D801002040880008C3
:1052E000D8010020E81F0020FEE72DE9F04F85B02F
:1052F00057EC106BDDE90E9B002F0C4690461946CB
:10530000B8BF32463B462BF0200ABBBF07F1004333
:105310001F4600232D23B8BF1646BAF1460F0B7067
:1053200005D0BAF1450F00D10134022100E003217C
:1053300003AB019302AB009347EC106B4B46224644
:1053400000F0C6FEBBF1670F054619D118F0010F3A
:105350000ED005EB04080022002330463946FBF747
:10536000B3FB08B1CDF80C803022039B434521D319
:10537000039B109A5B1B2846136005B0BDE8F08FB5
:10538000BBF1470FE2D0BAF1460F00EB0408E2D1BF
:105390000378302B0AD10022002330463946FBF730
:1053A00093FB18B9C4F10104C9F80040D9F80030E2
:1053B0009844D0E7591C03911A70D6E7F7B5002935
:1053C000BABF49422D232B2309290270437029DDDE
:1053D0000DF107031D460A271A46B1FBF7F607FB36
:1053E0001614303402F8014C0C46632C03F1FF33E1
:1053F0003146F1DC3031941E03F8011C411C234678
:10540000AB420AD30DF109039B1AAC4288BF0023BB
:1054100002330344181A03B0F0BD13F8016B01F80E
:10542000016FEDE7302330318370C170031DF1E768
:105430002DE9F04F8DB00C46DDF8588016461F461A
:10544000054600F03DFD036804931846FAF710FF87
:1054500000230A93D8F800300590073323F00703A0
:1054600003F1080294F818A0D4F800B0C8F800209E
:10547000D3E9008929F000430793CDF81880C4E9E7
:105480001289DDE90601A04B4FF0FF32FBF74EFB1E
:1054900070BBDDE906019C4B4FF0FF32FBF728FBA8
:1054A00030BB0022002340464946FBF717FB10B1F2
:1054B0002D2384F84330954A954BBAF1470F94BF9A
:1054C00090469846032323612BF0040323604FF09A
:1054D0000009009733460BAA2146284600F0DAF966
:1054E000013040F096804FF0FF300DB0BDE8F08FF6
:1054F00042464B4640464946FBF718FB40B14B46F7
:10550000002BBCBF2D2384F84330824A824BD4E762
:1055100063685A1C26D1062363604BF48062002323
:10552000226003930AABCDE901A309AB0093616844
:1055300049EC108B0DF123032846FFF7D6FEBAF194
:10554000670F0999804615D1CB1C3BDB63689942F4
:1055500038DC0A9B994255DB23682161D80745D581
:105560004B1C42E00AF0DF02472AD6D1002BD4D1EF
:105570000123D1E7BAF1470F07D1C81C25DB6368C7
:105580008B4222DB4FF0670AE3E7BAF1650F1FD8C1
:105590000139524604F150000991FFF70FFF0A9AB2
:1055A0001318012A8146236102DC2268D20701D543
:1055B000013323619DF82330002B8AD02D2384F8FA
:1055C000433086E74FF0650AE2E74FF0450ADFE730
:1055D000BAF1660FBDD1002963680BDD216113B9F3
:1055E0002268D00702D501330B442361A1654FF037
:1055F0000009DFE713B92268D20701D50233F4E7C7
:105600000123F2E70029D4BFC1F1020201221344B1
:10561000EBE723685A0507D42369424631462846FA
:10562000B84701302BD15EE7BAF1650F40F2DC805C
:10563000D4E9120100220023FBF746FA002833D0F8
:10564000364A012331462846B84701303FF44BAF74
:10565000DDE90938434502DB2368D8070FD5DDE9CA
:10566000042331462846B84701303FF43CAF4FF0A1
:10567000000908F1FF3804F11A0AC84509DC23685B
:105680009B0700F10281E0680B9B9842B8BF184667
:105690002BE70123524631462846B84701303FF4F4
:1056A00022AF09F10109E8E7099B002B38DC1B4A0E
:1056B000012331462846B84701303FF414AFDDE9F5
:1056C000093959EA030302D12368D907D7D5DDE99F
:1056D000042331462846B84701303FF404AF4FF069
:1056E000000A04F11A0B099B5B42534501DC4B464F
:1056F00093E701235A4631462846B84701303FF424
:10570000F2AE0AF1010AEEE7FFFFEF7FEA8400083C
:10571000EE840008F2840008F6840008FA84000889
:10572000A36DDDF828A05345A8BF5346002B99462A
:1057300036DC4FF0000B29EAE97904F11A02A36D77
:105740000693A3EB09035B4531DC099B9A453ADCE0
:105750002368DA0737D4099BAAEB0309069BAAEB57
:1057600003039945A8BF9946B9F1000F33DC4FF008
:10577000000829EAE97904F11A0B099BAAEB030353
:10578000A3EB090343457FF77AAF01235A4631461D
:105790002846B84701303FF4A6AE08F10108ECE70F
:1057A000424631462846B8470130C2D19BE6012324
:1057B000314628460692B84701303FF494AE069A27
:1057C0000BF1010BBBE7DDE9042331462846B8475E
:1057D0000130C0D187E6069A4B46424431462846FE
:1057E000B8470130C3D17EE6DDF828A0BAF1010F39
:1057F00001DCDB0736D50123424631462846B8474F
:1058000001303FF470AEDDE9042331462846B84745
:1058100001303FF468AED4E91201002200230AF1FE
:10582000FF3AFBF751F9C0B9534608F1010231467E
:105830002846B84701300CD155E601235A46314677
:105840002846B84701303FF44EAE08F10108D04574
:10585000F3DB4B4604F15002E0E64FF0000804F1A0
:105860001A0BF4E701234246E1E701234A46314699
:105870002846B84701303FF436AE08F10108E36826
:105880000B995B1A4345F0DCFDE64FF0000804F18C
:105890001909F4E72DE9F047164698468A680B691E
:1058A000DDF820909342B8BF1346336091F843204F
:1058B00007460C460AB1013333602368990642BF9C
:1058C000336802333360256815F0060506D104F10C
:1058D000190AE36832689B1AAB4226DC94F843301D
:1058E0002268003B18BF012392062BD404F1430227
:1058F00041463846C84701301ED02368226903F06C
:105900000603042B02BFE5683368ED1AA3680CBFD9
:1059100025EAE57500259342C4BF9B1AED180026C1
:105920001A34B5421AD1002008E0012352464146FC
:105930003846C847013003D14FF0FF30BDE8F0874B
:105940000135C6E7E1185A1C302081F84300224493
:1059500094F8451082F843100233C7E7012322462A
:1059600041463846C8470130E6D00136D9E7000045
:105970002DE9FF470F7E0C9D782F914680460C46FF
:105980009A4601F1430207D8622F0AD8002F00F08F
:10599000E080582F00F0BB8004F1420684F842708A
:1059A0003AE0A7F16303152BF6D801A151F823F0D3
:1059B000095A00081D5A0008995900089959000809
:1059C00099590008995900081D5A0008995900086A
:1059D000995900089959000899590008395B00083D
:1059E000AD5A0008EF5A0008995900089959000863
:1059F0005B5B000899590008AD5A000899590008E6
:105A000099590008F75A00082B681A1D1B682A606C
:105A100004F1420684F842300123ABE02368296890
:105A20001F0601F10400286001D50D6803E05E0641
:105A3000FBD5B1F900506168002D7ADA2D200029DC
:105A400084F84300A1602DDA5E486D420A231646B1
:105A5000B5FBF3F103FB1157C75D06F8017D2F4637
:105A6000BB420D46F4D9082B0BD12368DF0708D5BC
:105A7000236961689942DEBF302306F8013C06F1D4
:105A8000FF36921B2261CDF800A04B4603AA2146A7
:105A90004046FFF7FFFE013071D14FF0FF3004B0F8
:105AA000BDE8F08723F004032360CDE72B6820686E
:105AB000191D2960050601D51D6802E04106FBD5C8
:105AC0001D8840486F2F14BF0A230823002184F843
:105AD00043106668A660002EB9DB216821F004013E
